:020000040800F2
:1000000028080020CD0100080B06000803060008A0
:1000100007060008BB030008FF0F000800000000EF
:10002000000000000000000000000000E9070008D8
:10003000BF0300080000000091060008D508000872
:10004000E7010008E7010008E7010008E7010008F0
:10005000E7010008E7010008E7010008C103000804
:10006000E7010008E7010008E7010008E7010008D0
:10007000E7010008E7010008E7010008E7010008C0
:10008000E7010008E7010008E7010008E7010008B0
:10009000E7010008E7010008E7010008E7010008A0
:1000A000E7010008E7010008E7010008E701000890
:1000B00039090008E7010008E7010008E701000826
:1000C000E7010008E7010008E7010008E701000870
:1000D000E7010008390D0008DD0D0008E701000800
:1000E000E7010008E7010008E7010008E701000850
:1000F000E7010008E7010008E7010008E701000840
:10010000E7010008E7010008E7010008E70100082F
:10011000E7010008E7010008E7010008E70100081F
:10012000E7010008E7010008E7010008E70100080F
:1001300000F002F800F03AF80AA090E8000C8244BF
:100140008344AAF10107DA4501D100F02FF8AFF29C
:10015000090EBAE80F0013F0010F18BFFB1A43F0A5
:1001600001031847D0260000F0260000103A24BFF3
:1001700078C878C1FAD8520724BF30C830C144BF0C
:1001800004680C607047000000230024002500264E
:10019000103A28BF78C1FBD8520728BF30C148BFEA
:1001A0000B6070471FB51FBD10B510BD00F0CFF834
:1001B0001146FFF7F7FF00F0BDFF00F0EDF803B4C4
:1001C000FFF7F2FF03BC00F0F1F800000948804798
:1001D00009480047FEE7FEE7FEE7FEE7FEE7FEE729
:1001E000FEE7FEE7FEE7FEE704480549054A064B41
:1001F00070470000D90800083101000828020020DB
:10020000280800202804002028040020032A40F2A7
:10021000308010F0030C00F0158011F8013BBCF1A8
:10022000020F624498BF11F801CB00F8013B38BFC0
:1002300011F8013BA2F1040298BF00F801CB38BFCE
:1002400000F8013B11F0030300F04F80083AC0F0C2
:10025000088051F8043B083A51F804CBA0E8081094
:10026000F5E7121D5CBF51F8043B40F8043BAFF3C7
:100270000080D20724BF11F8013B11F801CB48BF21
:1002800011F8012B24BF00F8013B00F801CB48BF57
:1002900000F8012B70474FF0000200B5134694465A
:1002A0009646203922BFA0E80C50A0E80C50B1F1CE
:1002B0002001BFF4F7AF090728BFA0E80C5048BFE2
:1002C0000CC05DF804EB890028BF40F8042B08BF80
:1002D000704748BF20F8022B11F0804F18BF00F87C
:1002E000012B704770477047704710B5203AC0F037
:1002F0000B80B1E81850203AA0E81850B1E8185027
:10030000A0E81850BFF4F5AF5FEA027C24BFB1E863
:100310001850A0E8185044BF18C918C0BDE81040D4
:100320005FEA827C24BF51F8043B40F8043B08BFDD
:100330007047D20728BF31F8023B48BF11F8012BA4
:1003400028BF20F8023B48BF00F8012B70477546D4
:1003500000F028F8AE4605006946534620F0070035
:10036000854618B020B5FFF73FFFBDE820404FF0AD
:1003700000064FF000074FF000084FF0000B21F08F
:100380000701AC46ACE8C009ACE8C009ACE8C0095C
:10039000ACE8C0098D4670470446AFF300802046A4
:1003A000FFF70DFF00487047C401002001491820E5
:1003B000ABBEFEE726000200704700BFFEE77047B5
:1003C00010B5022000F010F828B101200249087091
:1003D000022000F003F810BD14000020014908605D
:1003E0007047000014040140014600200022074B22
:1003F0001B6803EA0102054B14331B680B4013B161
:100400000AB1012000E00020704700000004014014
:10041000002123498279002A3AD00A4612680368EB
:100420009A430B461A600A1D126803689A430B1D13
:100430001A60027911440A6803681A430A60184A6C
:100440000832126803689A43154B08331A601A1D64
:10045000126803689A43124B0C331A604279102ACF
:100460000ED11A1F126803681A430D4B08331A6025
:100470001A1D126803681A43094B0C331A600DE009
:100480000749427911440A6803681A430A6005E083
:10049000027911440A6803689A430A6070470000B1
:1004A0000004014030B500228B071C0F0F2303FA14
:1004B00004F20B4B8C1053F824309343084C8D10EE
:1004C00044F8253023468C1053F824308C07240F31
:1004D00000FA04F42343024C8D1044F8253030BD5B
:1004E000080001402DE9F0410246002500260020C9
:1004F00000230024002791F803C00CF00F0591F8A9
:1005000003C00CF0100CBCF1000F03D091F802C036
:100510004CEA050591F800C0BCF1000F31D0146819
:1005200000202BE04FF0010C0CFA00F3B1F800C0F2
:100530000CEA03069E4220D183004FF00F0C0CFA08
:1005400003F7BC4305FA03FC4CEA040491F803C02A
:10055000BCF1280F06D14FF0010C0CFA00FCC2F8D8
:1005600014C00AE091F803C0BCF1480F05D14FF068
:10057000010C0CFA00FCC2F810C0401C0828D1D3B2
:100580001460B1F800C0BCF1FF0F34DD54680020E6
:100590002EE000F1080C4FF0010808FA0CF3B1F856
:1005A00000C00CEA03069E4221D183004FF00F0CDD
:1005B0000CFA03F7BC4305FA03FC4CEA040491F877
:1005C00003C0BCF1280F05D100F1080C08FA0CF8A3
:1005D000C2F8148091F803C0BCF1480F07D100F1B4
:1005E000080C4FF0010808FA0CF8C2F81080401C03
:1005F0000828CED35460BDE8F081416170470161A5
:10060000704700BFFEE700BFFEE7704770B50021EE
:1006100000230F22C47804B3154C246804F4E0646A
:10062000C4F5E064210AC1F10403CA40447804FA25
:1006300003F184781440214309010E4C0678A1553A
:10064000047804F01F050124AC4005786D11AD005D
:1006500005F1E025C5F8004109E0047804F01F0524
:100660000124AC40044D0678761145F8264070BD53
:100670000CED00E000E400E080E100E0024901430D
:10068000024A1160704700000000FA050CED00E01E
:100690007047000029B1064AD2690243044BDA616F
:1006A00004E0034AD2698243014BDA6170470000DB
:1006B0000010024029B1064A12690243044B1A6134
:1006C00004E0034A12698243014B1A61704700003B
:1006D0000010024029B1064A92690243044B9A6114
:1006E00004E0034A92698243014B9A61704700001B
:1006F0000010024029B1064AD2680243044BDA6076
:1007000004E0034AD2688243014BDA60704700007C
:100710000010024030B500210022002400232D4D9E
:100720006D6805F00C0121B1042905D0082923D1F9
:1007300005E0294D056022E0274D05601FE0254DAD
:100740006D6805F47012234D6D6805F48034022540
:1007500005EB92421CB9214D554305600BE01D4D40
:100760006D6805F400351DB11C4D5543056002E070
:10077000194D5543056002E0174D056000BF00BFED
:10078000144D6D6805F0F0010909154D6B5C0568A5
:10079000DD4045600F4D6D6805F4E061090A104DBC
:1007A0006B5C4568DD4085600A4D6D6805F46051FD
:1007B000C90A0B4D6B5C4568DD40C560054D6D6831
:1007C00005F44041890B074D6B5CC568B5FBF3F53B
:1007D000056130BD0010024000127A0000093D00A2
:1007E0001600002026000020704710B500F002F827
:1007F00010BD00000CB50020019000903348006847
:1008000040F480303149086000BF3048006800F48F
:10081000003000900198401C0190009818B9019890
:10082000B0F5A06FF1D12948006800F4003010B194
:100830000120009001E0002000900098012843D1A1
:100840002348006840F0100021490860084600680D
:1008500020F0030008600846006840F002000860CD
:100860001A48406819494860084640684860084688
:10087000406840F4806048600846406820F47C107E
:1008800048600846406840F4E81048600846006840
:1008900040F08070086000BF0C48006800F00070F5
:1008A0000028F9D00948406820F003000749486053
:1008B0000846406840F00200486000BF03484068B6
:1008C00000F00C000828F9D10CBD00000010024017
:1008D000002002407047000010B51348006840F047
:1008E00001001149086008464068104908400E4957
:1008F0004860084600680E4908400B4908600846F1
:10090000006820F4802008600846406820F4FE005B
:1009100048604FF41F008860FFF767FF4FF00060EA
:100920000449086010BD0000001002400000FFF8FC
:10093000FFFFF6FE08ED00E010B50121880700F08A
:1009400039F9C8B10121880700F021F801200B49CD
:1009500008700B48007878B902E00A4800F046FBBE
:1009600040F22551074800F086FA0028F5D10548E5
:100970000088012001F09CFB10BD00001500002044
:100980002F00002000440040CA4302827047CA433F
:100990000282704721B1028842F00102028004E025
:1009A00002884FF6FE731A400280704731B1B0F8EA
:1009B000442042F40042A0F8442005E0B0F844206E
:1009C000C2F30E02A0F844207047000010B50446A0
:1009D0006848844208D10121C014FFF78BFE002132
:1009E000E014FFF787FEC4E0B4F1804F08D1012185
:1009F0000846FFF75FFE00210120FFF75BFEB8E02D
:100A00005D48844208D101210220FFF753FE0021F6
:100A10000220FFF74FFEACE05848844208D1012184
:100A20000420FFF747FE00210420FFF743FEA0E06B
:100A30005348844208D101210820FFF73BFE0021E2
:100A40000820FFF737FE94E04E48844208D1012188
:100A50001020FFF72FFE00211020FFF72BFE88E06B
:100A60004948844208D101212020FFF723FE0021BC
:100A70002020FFF71FFE7CE04448844208D101217A
:100A80004014FFF737FE00216014FFF733FE70E0DB
:100A90003F48844209D10121C804FFF72BFE002101
:100AA0004FF40020FFF726FE63E03A48844209D164
:100AB00001210805FFF71EFE00214FF48010FFF70B
:100AC00019FE56E03448844209D101214805FFF758
:100AD00011FE00214FF40010FFF70CFE49E02F48F3
:100AE000844208D101214020FFF7E4FD002140208D
:100AF000FFF7E0FD3DE02A48844208D10121802033
:100B0000FFF7D8FD00218020FFF7D4FD31E0254814
:100B1000844208D101218015FFF7CCFD0021A015EA
:100B2000FFF7C8FD25E02048844209D101210804CF
:100B3000FFF7E0FD00214FF48030FFF7DBFD18E008
:100B40001A48844209D101214804FFF7D3FD00214E
:100B50004FF40030FFF7CEFD0BE01548844208D17A
:100B600001218804FFF7C6FD00214FF48020FFF724
:100B7000C1FD10BD002C01400004004000080040F1
:100B8000000C004000100040001400400034014000
:100B9000004C01400050014000540140001800404A
:100BA000001C004000200040004001400044014083
:100BB0000048014030B50246002000230024158A79
:100BC00005EA0103958905EA010413B10CB101207E
:100BD00000E0002030BD1AB183890B43838102E01D
:100BE00083898B438381704770B5002400220023E2
:100BF000058C4FF6FE7635400584028C8388048B85
:100C00004FF68F752C40B51E2C400D882C43751E59
:100C10002A400D892A434D882A43144DA8420BD0FF
:100C2000134DA84208D0134DA84205D0124DA8423A
:100C300002D0124DA84213D14FF6F7752A404D89C4
:100C40002A434FF6FB752A408D882A434FF6FF65ED
:100C50002B404FF6FF552B408D892B43CD892B43DD
:100C600083800483CD888586028470BD002C01407A
:100C70000034014000400140004401400048014070
:100C80000A460021018B4FF6F77319401143018387
:100C900070470000002202881D4B98420ED01D4B69
:100CA00098420BD0B0F1804F08D01B4B984205D032
:100CB0001A4B984202D01A4B984204D14FF68F73C8
:100CC0001A404B881A43174B984207D0164B98424C
:100CD00004D04FF6FF431A40CB881A4302808B881A
:100CE00083850B8803850A4B98420BD0094B9842A9
:100CF00008D00E4B984205D00D4B984202D00D4BB8
:100D0000984201D10B7A0386012383827047000049
:100D1000002C014000340140000400400008004065
:100D2000000C004000100040001400400040014052
:100D3000004401400048014010B540F225512148CF
:100D400000F099F888B31F4800F050F9C4B21E486B
:100D500001780078401C1C4A10701C48445410460E
:100D60000078401E1949085C0A2817D110460078FF
:100D7000801E085C0D2811D101201549087010460D
:100D80000078144908700846027810491248FFF7A5
:100D90003DFA002010490F4A127888540A4800781A
:100DA000402802D100200849087040F22771054808
:100DB00000F061F828B1002240F22771014800F0EC
:100DC00084F810BD003801402A000020C100002036
:100DD0002B0000202C0000200101002010B540F263
:100DE0002551134800F047F8A0B1114800F0FEF873
:100DF000C4B2104801780078401C0E4A10700E48AA
:100E00004454104600780D490978884202D10120E7
:100E10000B49087040F22771054800F02CF828B102
:100E2000002240F22771024800F04FF810BD000088
:100E3000004400402D000020410100202E00002031
:100E40002F00002021B1828942F40052828104E007
:100E500082894DF6FF731A40828170470246002056
:100E6000B1F5007F00D100BF13880B400BB101200A
:100E700000E00020704770B50246002400230025E2
:100E8000002040F66A16B14200D100BFC1F34215FE
:100E900001F01F03012606FA03F3012D02D1968902
:100EA000334006E0022D02D1168A334001E0968AD3
:100EB00033400C12012606FA04F41688344013B1AC
:100EC0000CB1012000E0002070BDF0B50346002405
:100ED00000260025002040F66A17B94200D100BF65
:100EE0001846C1F3421401F01F06012707FA06F560
:100EF000012C01D10C3004E0022C01D1103000E0B3
:100F000014301AB107682F43076002E00768AF4347
:100F10000760F0BD2DE9F04786B005460E46002477
:100F2000A24600BFA1460027B08900B100BF2F46EE
:100F30002C8A4CF6FF700440F08804432C82AC8964
:100F40004EF6F3100440B088318908437189084394
:100F50000443AC81AC8A4FF6FF400440B08904439F
:100F6000AC8201A8FFF7D6FB1F48874202D1DDF80B
:100F700010A001E0DDF80CA0A88900F4004040B109
:100F80000AEBCA0000EB0A1031684900B0FBF1F827
:100F900007E00AEBCA0000EB0A1031688900B0FBD9
:100FA000F1F86420B8FBF0F004012009642101FB92
:100FB0001089A88900F4004040B1322000EBC9003C
:100FC000B0FBF1F000F00700044308E0322000EB32
:100FD00009106421B0FBF1F000F00F0004432C81F4
:100FE00006B0BDE8F087000000380140014688885F
:100FF000C0F308007047C1F308028280704700BF49
:10100000FEE7000070B502460C46FF25FF2309E00D
:1010100012F8010B80EA05010648405C80EA0305EE
:101020000548435C2000A4F10106F4B2F0D143EA84
:10103000052070BD342600083427000800E0401E5B
:101040000028FCD1704700001CB501210520FFF7E6
:1010500041FB0220ADF8040048208DF80700032072
:101060008DF8060001A90D48FFF73CFA4FF4C06067
:10107000FFF704FB07208DF8000000208DF8010029
:1010800001208DF802008DF803006846FFF7BEFAD4
:1010900001210020FFF706FA1CBD000000080140F6
:1010A0001CB50220009000208DF804000C208DF863
:1010B000050001208DF806006846FFF7A9F91CBD60
:1010C0001CB50220009000208DF804000C208DF843
:1010D000050000208DF806006846FFF799F91CBD51
:1010E000024622B1012A06D0022A0CD107E02023B1
:1010F0000B80064807E040230B80054803E00823E7
:101100000B80034800BF00BF70470000000C014087
:101110000014014038B50546002000906946284675
:10112000FFF7DEFF044624B1BDF800102046FFF7AC
:1011300066FA38BD1CB500F0A7FB00200346024646
:101140004FF496410090012000F01EFF002003465E
:1011500002464FF496410090022000F015FF002057
:10116000FFF7D8FF0120FFF7D5FF0220FFF7D2FFDE
:10117000FEA1012000F04DFF00F018FBFFF764FF17
:1011800000F008FE00200446054601900026FE49B6
:101190000860FE490860FE490870F4E2FD480068F6
:1011A000401CFC490860FC480078002876D0FB48C9
:1011B0000078022827DDF9480078801EF849085C8D
:1011C0000D2820D1F5480078401E085C0A28F8D187
:1011D00008460078102817D108464078012813D116
:1011E0000846807836287ED100231A468121902037
:1011F00000F094FC3622EA49C91CEA48FFF706F8D9
:10120000812000F0B5FC6EE0E548007810280CD194
:10121000E3484078022808D100231A468221902012
:1012200000F07CFC00F09AFD5DE0DD48007830289D
:1012300008D1DB484078012804D1DB49087000F070
:10124000FFFA50E0D648007840280FD1D4484078C3
:1012500001280BD1D248877890F8038090F8049049
:101260004A464146384600F001FC3CE0CC48007854
:10127000202807D1CA484078022803D1822000F0F4
:1012800077FC30E0C6480078202808D1C448407870
:10129000042804D1832000F06BFC24E028E0C0483F
:1012A0000078202807D1BE484078082803D1842040
:1012B00000F05EFC17E0BA480078202813D1B84847
:1012C000407801280FD1B648807804280BD1B54862
:1012D000B349D1F80310C0F8221000231A46812127
:1012E000A02000F01BFC0020AB490870AB4908703F
:1012F000AD48007800B946E2AB480078012819D122
:10130000AA48007870B10423A24A8221B02000F0DC
:1013100005FCFFF7D5FE00F0A5FA0020A2490870F1
:101320009B4908709B480068A149884201D1FFF79A
:10133000B7FE28E29C48007800F08000002876D0B4
:101340009A480078A8B1FFF7BBFE00F08BFA0120A5
:101350008F49087000208C4908608C4908609549C5
:101360000870954908704FF48000FFF767FE00F0A1
:1013700048FD87480078042806D1864800688C49D3
:10138000884201D1FFF78CFE8A4800780028D6D029
:10139000002289480178894800F0ECFA0190019810
:1013A000401C28B900208349087083490870EAE18D
:1013B0007D48007881287DD17548007802287AD14F
:1013C0007F480069019944187D48C069A04216DA37
:1013D00000F01DFD734991F8230000F07DFB4FF4F0
:1013E0008000FFF72BFE00F00CFD03206849087019
:1013F000019D00206F4908706F490870C3E1704873
:1014000090F82C00A0B96E48B0F93000A0420FDC73
:1014100001206B4981F82C000B4693F83220614B78
:1014200093F8241093F8230000F020FBA5E1A9E134
:10143000634890F82D0098B96148B0F93400A04293
:101440000EDC01205E4981F82D000B4693F8362012
:10145000544B93F8241093F8230000F007FB8CE121
:10146000574890F8400098B95548B0F94400A04258
:101470000EDC0120524981F840000B4693F84620CB
:10148000484B93F8251093F8230000F0EFFA74E12D
:101490004B4890F841000028C8D14948B0F94800AD
:1014A000A042C3DC0120464981F841000B4693F875
:1014B0004A2001E005E107E03A4B93F8251093F844
:1014C000230000F0D3FA58E13148007803284CD1CA
:1014D0000198401B3A49086108460069002803DA70
:1014E00008460069404208613549C968019A501AA6
:1014F00000F040FF074632480168384600F05CFEC5
:1015000006462F48C069019988421CDD0220204907
:10151000087000202749087027490870284B93F865
:101520003620204B93F8241093F8230000F09EFA05
:10153000234B93F84A201B4B93F8251093F8230074
:1015400000F094FA1FE100F062FC304600F0F6FE75
:101550001C49086009684FF47A7201FB02F000F040
:1015600009FF80461849304630E05EE0CFB5CDB384
:10157000B2E2CAD4203E3E3E3E3E3E3E3E3E3E3E6F
:101580003E3E3E3E3E0D0A000400002008000020C2
:1015900000000020100000202B0000202A00002066
:1015A000C1000020340000200100002014000020B1
:1015B000A08601002F0000202D0000204101002006
:1015C0006C000020B800002000007A4400F0EAFE21
:1015D0008146414600F0B2FF074600F0AFFE6A497F
:1015E00048606A48006A0199884209DA0020664921
:1015F000087267488089401C00B26549888108E00C
:1016000001206149087262484089401C00B260496B
:10161000488109235C4AF021084600F07FFA042043
:101620005C49087000F00CF9A7E05A4800780128DE
:10163000FAD1594800680528F6D25848006801993F
:101640000844564908605448006810B9019D019C3F
:1016500008E00198854201DD019D03E00198844284
:1016600000DA019C4C480068401C4B490860084661
:101670000068052824D149480068401B001B03214D
:1016800090FBF1F0019000200446054602204149FC
:101690000870019800F026F93C4B93F82E203C4B43
:1016A00093F8241093F8230000F0E0F9374B93F8F7
:1016B0004220374B93F8251093F8230000F0D6F919
:1016C0005BE037480078832807D0354800788428C5
:1016D00003D03348007882284FD12F48006805286E
:1016E0004BD22E480068019908442C4908602A48CA
:1016F000006810B9019D019C08E00198854201DD58
:10170000019D03E00198844200DA019C22480068B0
:10171000401C214908600846006805282DD11F4853
:101720000068401B001B032190FBF1F0019000F0CA
:1017300015FB1B480078832806D1042301AA8421C5
:10174000A02000F0EBF914E015480078842806D1B9
:10175000042301AA8821A02000F0E0F909E0104844
:101760000078822805D1042301AA8221A02000F05C
:10177000D5F94FF48000FFF761FC0020094908709B
:101780000949087000BF09E5B80000206C0000207E
:101790003400002000000020040000200800002089
:1017A000010000202F0000202D00002000B589B08E
:1017B0000121C802FEF78EFF01210520FEF78AFFF6
:1017C0004FF48070ADF8040018208DF80700032056
:1017D0008DF8060001A91848FEF784FE0220ADF836
:1017E00018000020ADF81A004FF4B470ADF81C00DA
:1017F0000020ADF81E008DF8200006A90F48FFF765
:1018000049FA6020ADF808000120ADF80A00142064
:10181000ADF80E000020ADF8100002A90748FFF750
:10182000E3F908210548FFF72BFA01210348FFF7E8
:10183000BDF809B000BD000000080140002C0140C7
:1018400010B50020044908700449086001210448CB
:10185000FFF7A0F810BD00001400002010000020C9
:10186000002C014010B500200449087004490860AC
:1018700000210448FFF78EF810BD0000140000207E
:1018800010000020002C014070B5FFF725F8124928
:10189000B1F1807F00D31DE021F07F40401E4FF06A
:1018A000E022506150170F22002807DA13071D0E9F
:1018B0000A4B00F00F04241F1D5503E013071C0EF4
:1018C000074B1C5400BF00204FF0E022906107201E
:1018D000106100BF70BD00004019010018ED00E06C
:1018E00000E400E02049C860C9681F4A52691144F9
:1018F0001D4A9269891A1C4AD1611146C968526908
:101900001144194A92691144174A1162002182F860
:101910002D1082F82C1011468989928C114409B23D
:10192000114A118611468989128D114409B20E4A55
:101930009186002182F8411082F840101146898971
:10194000128F114409B2084AA2F84410114689893D
:10195000928F114409B2044AA2F848100021034AA8
:101960001160034A116070476C00002004000020E1
:101970000800002070B504460E46154614B94FF015
:10198000FF3070BD3146204600F043F8B0420DD123
:101990000DB120782870A079617940EA0120217981
:1019A000E27841EA022140EA0140EAE74FF0FF30E5
:1019B000E7E730B50546039C0DB9002030BD257022
:1019C00061701012A070E27018122071637106200D
:1019D000F4E72DE9F84380460E4615461C46DDF82F
:1019E00020907D2D03DC14B1B9F10C0F02DDFF2036
:1019F000BDE8F8832B463246032140460094FFF7AA
:101A0000D8FF07463946204600F01CF807463846FE
:101A1000EEE72DE9F04105460C4600260027A01E02
:101A2000C1B22846FFF7EEFA0646601E295CA01EEA
:101A3000285C41EA0027BE4202D12046BDE8F08181
:101A4000FF20FBE770B505460C4621462846FFF708
:101A5000D9FA064632122046611CCCB22A542046DE
:101A6000611CCCB22E54204670BD0000FEB5064667
:101A70000C46154609A207CA8DE807008DF80260DA
:101A80008DF804408DF805500921684600F00CF8E7
:101A900009226946022000F0DBFAFEBDAABBCC0495
:101AA000CCCC0000CC00000010B500B101B910BDD5
:101AB00000244B1EC454002208E04B1EC35C845C0F
:101AC0002344DCB24B1EC454531C9AB24B1E9342A7
:101AD000F3DC00BFEBE700003EB504460CA207CAEA
:101AE0008DE807008DF80240FF208DF804008DF886
:101AF00005008DF806008DF8070009216846FFF7FC
:101B0000D3FF09226946022000F0A2FA3EBD000080
:101B1000AABBCC01CCCCCCCCCC000000F0B5C1B081
:101B200006460F4615461C464FF4807101A8FEF785
:101B3000B2FB8DF804608DF805708DF806400D211C
:101B400001AAE01C11540A21201D11543DB1002CA2
:101B500005DD224629460DF10700FEF757FB601D03
:101B6000C2B201A9012000F073FA41B0F0BD00003B
:101B70002DE9F041044600207049488188810846DB
:101B8000D0F83210D0F82E00091A6C48D0F82A206C
:101B9000D0F82600101A91FBF0F5284600F0EAFB79
:101BA000674908606549B1F9020000F0E3FB0746A8
:101BB000644900F001FB05466049B1F9000000F0FE
:101BC000D9FB0646294600F095FA5D4948605B4915
:101BD000B1F9060000F0CEFB07465A4900F0ECFAD6
:101BE00005465649B1F9040000F0C4FB06462946F3
:101BF00000F080FA524988600A461168506800F087
:101C0000D1FB054600F09AFB4D4948610A46116830
:101C1000906800F0C7FB054600F090FB48498861DA
:101C20000846C0688969401A4549C8610846C068C5
:101C300089690844424908620020C860086181F847
:101C40002D0081F82C003D48C089C8853B48408A5A
:101C500048863A48C08AC8863848008A0886374885
:101C6000808A88864969364AB2F9302001FB02F041
:101C700000F080FB0646344900F09EFA054600F06D
:101C80005DFB2F49486249692D4AB2F9342001FBB6
:101C900002F000F06FFB06462B4900F08DFA054676
:101CA00000F04CFB26498862002081F8410081F851
:101CB00040002248008BA1F842002048808BA1F808
:101CC00046001E48008CA1F84A001C48408BA1F831
:101CD00044001A48C08BA1F848004969184AB2F973
:101CE000442001FB02F000F045FB0646164900F0D7
:101CF00063FA054600F022FB114988634969104ADE
:101D0000B2F9482001FB02F000F034FB06460E4910
:101D100000F052FA054600F011FB0949C8630120A2
:101D20000A4908700A48047000200A4908600A49F4
:101D3000086000F066F8BDE8F08100003400002083
:101D40006C00002000007A440000C842000000201F
:101D500001000020040000200800002010B5002031
:101D600008490870084908600849086000F04FF801
:101D7000FFF778FDFFF7A4F9054991F82300FFF775
:101D8000ABFE10BD00000020040000200800002071
:101D9000340000201FB501210846FEF77BFC4FF4FC
:101DA000E060FEF76BFC1C208DF8000000208DF831
:101DB00001008DF8020001208DF803006846FEF74F
:101DC00025FC4FF08040FEF701FE40F6B830ADF83C
:101DD000080040F29F50ADF804000020ADF80A0062
:101DE000ADF8060001A94FF08040FEF753FF012136
:101DF0008807FEF7C9FD012211469007FEF7EBFEAA
:101E00001FBD10B501218807FEF7C4FD10BD10B538
:101E100000214FF08040FEF7BDFD10BDF0B585B04C
:101E200004460D4616461F46012144F20500FEF702
:101E300051FC0021252000F0D7F84FF40070ADF8D8
:101E4000000018208DF8030003208DF80200694679
:101E50001948FEF747FB4FF48060ADF800000420FE
:101E60008DF8030003208DF8020069461248FEF742
:101E700039FB0194ADF80850ADF80A60ADF80C706C
:101E80000020ADF810000C20ADF80E0001A90B48A1
:101E9000FFF740F8012240F225510848FFF715F8F6
:101EA000012240F227710548FFF70FF8012103488E
:101EB000FEF7C8FF05B0F0BD000801400038014042
:101EC000F0B585B007460C4615461E460121252073
:101ED000FEF700FC01214804FEF7DCFB012126206F
:101EE00000F082F80420ADF8000018208DF80300FF
:101EF00003208DF8020069462048FEF7F3FA082017
:101F0000ADF8000004208DF8030003208DF80200D6
:101F100069461A48FEF7E6FA4FF48050ADF8000023
:101F200010208DF8030003208DF802006946144844
:101F3000FEF7D8FA0197ADF80840ADF80A50ADF8B1
:101F40000C600020ADF810000C20ADF80E0001A9C7
:101F50000C48FEF7DFFF012240F225510948FEF749
:101F6000B4FF012240F227710648FEF7AEFF0121BF
:101F70000448FEF767FF05B0F0BD0000000801400F
:101F800000140140004400402DE9F04104460D4694
:101F900016461F46DDF81880012C06D143463A4606
:101FA00031462846FFF73AFF07E0022C05D14346A9
:101FB0003A4631462846FFF783FFBDE8F08100002E
:101FC00001460020012902D0022904D101E0044881
:101FD00003E0044801E0002000BF00BF704700009C
:101FE000003801400044004038B505460C464FF427
:101FF000E060FEF743FB8DF8005000208DF80100F3
:102000008DF8024001208DF803006846FEF7FEFAC5
:1020100038BD70B506460C4600253046FFF7D0FFA8
:10202000054605B104B970BD28880BE014F8011B02
:102030002846FEF7E0FF00BF40212846FEF70EFFCE
:102040000028F9D020780028F0D100BFEBE700008D
:102050002DE9F04180460C461546002600274046F3
:10206000FFF7AEFF07460FB104B10DB9BDE8F0812F
:102070004FF480510D48FEF7C2FA38880CE0A15D9C
:102080003846FEF7B8FF00BF40213846FEF7E6FEAF
:102090000028F9D0701CC6B2AE42F0DB4FF480517C
:1020A0000248FEF7AAFA00BFE0E700000014014072
:1020B0007FB504460C4A07CA01AB07C30C2001AB2D
:1020C0000222282100902046FFF783FC05460920C4
:1020D000064908700020064908702A4601A9022016
:1020E000FFF7B6FF7FBD0000282600082E00002065
:1020F0002D00002090EA010F48BF81F0004100F15F
:102100002482421A3CBF801A89184FEAD0524FF0FD
:102110007F4C1CEA410FA2EBD15318BF9CEA026F1F
:1021200000F03B804FF0004C4CEA00204CEA0121CB
:1021300021FA03FC10EB0C0C1ED202F1FF325FEA15
:102140001C2040EBC25038BF70471CF07F0F4FEA95
:10215000400C18BFBCF17F4F38BF7047C3F120035C
:10216000994008BF20F00100BCF17F4F38BF704795
:10217000A0F1C04000F0DDB94FEA3C00000A40EB9E
:10218000C25028BF1CF0FF0F4FEA400CE6D018BF2A
:10219000BCF17F4F38BF7047EAE79CEA026F05D079
:1021A00010EA5C0F08BF00F00040704710B500F067
:1021B0007AF900BF64FBBE3E4FF47F0C1CEAD012DC
:1021C0001EBF1CEAD11392EA0C0F93EA0C0F00F029
:1021D000858090EA010F48BF42F4807240F4000C01
:1021E00041F400002CF07F4120F07F4000B5814297
:1021F000A2EB03020FF2081CACEB504EC0F1000042
:102200009EF800E04FEA4E0E00FB0EFC38BF49007E
:102210004FEA2C1C02F5FA020CFB0EF34FEACE1E1D
:102220004FEA112C4FEAC1210EEB635E42EB2242D2
:102230000EFB0CFC4FEA1C5300FB03114FEA112C60
:102240004FEA01310EFB0CFC4FEADC4C00FB0C1199
:10225000C14228BF09184CEB03335DF804EB10EBC7
:10226000410143EBC250B2F57C0F38BF704729D50E
:1022700012F0F00F1CBF00F1C04000F000407047AA
:10228000008182838485868788898B8C8D8E8F914F
:102290009293959697999A9C9D9FA0A2A3A5A7A873
:1022A000AAACAEB0B2B3B5B7B9BCBEC0C2C5C7C99F
:1022B000CCCED1D4D7D9DCDFE2E6E9ECF0F3F7FA03
:1022C000FE0000004FEA400C0CF1807CBCF17E4F18
:1022D00028BF7047B0F1C04000F02BB990EA010F61
:1022E0000CEAD11348BF42F48072624538BF63459F
:1022F00007D213F47F0F16D080EA010000F00040EF
:10230000704710B500F0CFF8097EFC3E00F005B82C
:1023100080EA010000F00040704780EA010000F010
:10232000004000F006B912F47F0F04BF0248704766
:1023300080EA010000F0FDB80000C07F41000B0EF4
:10234000D3F19E0208D950F400034FEA032323FA85
:1023500002F048BF4042704710B500F0A4F800BF3B
:1023600049922480002070476FF0004282EA2000EA
:102370007047000010F0004148BF4042B0FA80F3BF
:1023800010FA03F2C3F19D030BD051EAC35101EBE4
:102390001220530638BF704700F1010008BF20F03B
:1023A000010070474FF47F0C1CEAD0121EBF1CEADC
:1023B000D11392EA0C0F93EA0C0F00F0478090EAD9
:1023C000010F48BF42F480724FF0004C4CEA0020ED
:1023D0004CEA012102EB0302A0FB0113A2F500026B
:1023E000002918BF43F001035B0028BF4FEA330305
:1023F00042EB22425FEA132C4CEBC2502EBFBCEBE7
:10240000436FB2F57C0F70474FEA036CBCF1004F8D
:1024100008BF20F00100B2F57C0F38BF70470BD524
:1024200082F0FF0212F5803FC8BF704700F1C04044
:10243000D8BF00F00040704700F5000C5FEA4C0C7C
:1024400048BF7047B0F1C04000F073B890EA010F88
:102450000CEAD11348BF42F48072624538BF63452D
:1024600004D280EA010000F00040704710B500F08F
:102470001AF800BF8900013E00F007B800F009B863
:102480005FEA410C5FEA1C6C08D080EA010000F0B2
:1024900050B85FEA400C5FEA1C6CF6D14FF0004088
:1024A000A0F5800070470EF1020E2EF0030E5EF8CC
:1024B000044B244204D44FEA4102B2F17F4F11D8B9
:1024C0004FEA4003B3F17F4F0CD80ED14FEAD07CD6
:1024D000B2F17F4F0CEB4C0C0CF1020C08BF4CEB33
:1024E000D17C04E04FF0080C01E04FEAD17C0CEB0A
:1024F0004C0324FA03F404F00704B4F1040C06D2EC
:102500000EEB840CBDE810404CF0010C6047DFE896
:102510000CF0070802024FF00040A0F5800010BD4B
:102520000846420018BFD2F1807288BF00F0004018
:1025300010BDFF2141EAD050C005704790EA010F5D
:1025400048BF81F000413FF5DCAD421A04D882F06B
:102550000042A0EB020011444FEAD0524FF07F4CF2
:102560001CEA410FA2EBD15318BF9CEA026F4AD07C
:102570004FF0004C4CEA00204CEA012121FA03FC08
:10258000B0EB0C0C0FD412F0FE0F36D05FEA4C000B
:102590001DD5001240EBC25038BF70471CF03F0FF2
:1025A00018BF70470BE0A2F101025FEA1C2040EB6C
:1025B000C25038BF70471CF07F0F18BF7047C3F17F
:1025C0002003994014BF401E20F00100704780088E
:1025D0004FEA122308BF7047B0FA80FCA2EB0C024E
:1025E000CCF1280C60FA0CF093EA122F04BF00EB38
:1025F000C25070474FEAC3707047130A5FEADC109D
:1026000008BF7047F6E79CEA026F04D010EA5C0F3F
:1026100008BF0020704710B5FFF745FF40DFF63ECA
:1026200081F00040704700000103002800024403CD
:102630000000000000C1814001C0804101C0804114
:1026400000C1814001C0804100C1814000C1814082
:1026500001C0804101C0804100C1814000C1814072
:1026600001C0804100C1814001C0804101C0804162
:1026700000C1814001C0804100C1814000C1814052
:1026800001C0804100C1814001C0804101C0804142
:1026900000C1814000C1814001C0804101C0804132
:1026A00000C1814001C0804100C1814000C1814022
:1026B00001C0804101C0804100C1814000C1814012
:1026C00001C0804100C1814001C0804101C0804102
:1026D00000C1814000C1814001C0804101C08041F2
:1026E00000C1814001C0804100C1814000C18140E2
:1026F00001C0804100C1814001C0804101C08041D2
:1027000000C1814001C0804100C1814000C18140C1
:1027100001C0804101C0804100C1814000C18140B1
:1027200001C0804100C1814001C0804101C08041A1
:1027300000C1814000C0C101C30302C2C60607C771
:1027400005C5C404CC0C0DCD0FCFCE0E0ACACB0BE1
:10275000C90908C8D81819D91BDBDA1A1EDEDF1F11
:10276000DD1D1CDC14D4D515D71716D6D21213D301
:1027700011D1D010F03031F133F3F23236F6F737B1
:10278000F53534F43CFCFD3DFF3F3EFEFA3A3BFBA1
:1027900039F9F83828E8E929EB2B2AEAEE2E2FEF51
:1027A0002DEDEC2CE42425E527E7E62622E2E323C1
:1027B000E12120E0A06061A163A3A26266A6A767F1
:1027C000A56564A46CACAD6DAF6F6EAEAA6A6BAB61
:1027D00069A9A86878B8B979BB7B7ABABE7E7FBF91
:1027E0007DBDBC7CB47475B577B7B67672B2B37381
:1027F000B17170B050909151935352929656579731
:10280000559594549C5C5D9D5F9F9E5E5A9A9B5B20
:1028100099595898884849894B8B8A4A4E8E8F4FD0
:102820008D4D4C8C44848545874746868242438340
:10283000418180405428000800000020340000003E
:102840006C0100088828000834000020F40700000C
:1028500088010008000000000000000000000000E7
:10286000102700000000000000000000000001022E
:102870000304010203040607080902040608000015
:08288000000000000000000050
:0400000508000131BD
:00000001FF
